:100000000C942A000C9447000C9447000C94470071
:100010000C9447000C9447000C9447000C94470044
:100020000C9447000C9447000C9447000C94470034
:100030000C9447000C9447000C9447000C94470024
:100040000C9447000C9447000C9447000C94470014
:100050000C94470011241FBECFE5D8E0DEBFCDBF12
:1000600010E0A0E6B0E0E8ECF3E002C005900D92ED
:10007000A036B107D9F720E0A0E6B0E001C01D929C
:10008000A236B207E1F70E94B8010C94E2010C9489
:10009000000040E029C080E190E0032E02C0880FFC
:1000A000991F0A94E2F7809582BB20E015C080B3C7
:1000B00090E0022E02C0959587950A94E2F780FDA4
:1000C0000AC0822F880F820F830F8F5F233089F43D
:1000D000313071F008952F5F243048F33F5F01C045
:1000E00030E03330C0F24F5F4330D0F38FEF0895EC
:1000F00080E0089598B39F7E98BB8FB9779BFECF21
:100100006FB9779BFECF88B3806188BB08958091DB
:10011000600081110EC088E085BB2FE986E891E080
:10012000215080409040E1F700C0000085B3877FF8
:1001300085BB80916000813071F480E285BB2FE93E
:1001400086E891E0215080409040E1F700C0000037
:1001500085B38F7D85BB80916000823071F480E82B
:1001600085BB2FE986E891E0215080409040E1F77F
:1001700000C0000085B38F7785BB8091600083301D
:1001800079F488B3826088BB2FE986E891E021503A
:1001900080409040E1F700C0000088B38D7F88BBAD
:1001A000089590916000911110C0813071F494E035
:1001B00095BB2FE936E891E0215030409040E1F7BF
:1001C00000C0000095B39B7F95BB9091600091307B
:1001D00081F4813071F490E195BB2FE936E891E02C
:1001E000215030409040E1F700C0000095B39F7E61
:1001F00095BB90916000923081F4813071F490E46D
:1002000095BB2FE936E891E0215030409040E1F76E
:1002100000C0000095B39F7B95BB90916000933028
:1002200089F4813079F488B3816088BB2FE936E89E
:1002300081E0215030408040E1F700C0000088B3E9
:100240008E7F88BB08951F93CF93DF93182F87B3BA
:10025000806B87BB81E58DB961E089E00E947A00FF
:1002600061E08BE00E947A0061E08CE00E947A00FD
:1002700080916000809361008117C0F039C082E0F6
:1002800085BB6091610081E00E947A002FE986E8D9
:1002900091E0215080409040E1F700C00000809143
:1002A00061008F5F80936100219602C0C0E0D0E0C2
:1002B000812F90E020916000821B9109C817D90717
:1002C000F4F283E085BB6091610081E00E947A00D6
:1002D000109360000E9487002FE986E891E021508A
:1002E00080409040E1F700C0000081E00E94D10012
:1002F000809160001817B8F037C081E085BB60912D
:1003000061000E947A002FE986E891E02150804048
:100310009040E1F700C0000080916100815080931F
:100320006100219602C0C0E0D0E08091600090E0C2
:10033000811B9109C817D90704F383E085BB60913D
:10034000610081E00E947A00109360000E948700A3
:100350002FE986E891E0215080409040E1F700C00D
:10036000000081E00E94D100DF91CF911F9108959C
:100370001ABA83E087BB8FEF84BB80E781BB1BBACF
:1003800018BA15BA12BAC89B03C081E00E942301B3
:10039000C99B03C082E00E942301CA9B03C083E083
:1003A0000E942301CC9B03C080E00E9423010E9495
:1003B0004900843010F40E942301809160000E9463
:0803C0002301E1CFF894FFCF07
:00000001FF
